{
  "contractName": "FortuneTeller",
  "abi": [
    {
      "inputs": [],
      "payable": false,
      "stateMutability": "nonpayable",
      "type": "constructor"
    },
    {
      "constant": false,
      "inputs": [],
      "name": "getPrediction",
      "outputs": [
        {
          "name": "",
          "type": "string"
        }
      ],
      "payable": false,
      "stateMutability": "nonpayable",
      "type": "function"
    }
  ],
  "bytecode": "0x608060405234801561001057600080fd5b506040805190810160405280600981526020017f536f75726365312030000000000000000000000000000000000000000000000081525060008060048110151561005657fe5b01908051906020019061006a929190610459565b506040805190810160405280600981526020017f536f757263653120310000000000000000000000000000000000000000000000815250600060016004811015156100b157fe5b0190805190602001906100c5929190610459565b506040805190810160405280600981526020017f536f7572636531203200000000000000000000000000000000000000000000008152506000600260048110151561010c57fe5b019080519060200190610120929190610459565b506040805190810160405280600981526020017f536f7572636531203300000000000000000000000000000000000000000000008152506000600360048110151561016757fe5b01908051906020019061017b929190610459565b506040805190810160405280600981526020017f536f757263653220300000000000000000000000000000000000000000000000815250600460006004811015156101c257fe5b0190805190602001906101d6929190610459565b506040805190810160405280600981526020017f536f7572636532203100000000000000000000000000000000000000000000008152506004600160048110151561021d57fe5b019080519060200190610231929190610459565b506040805190810160405280600981526020017f536f7572636532203200000000000000000000000000000000000000000000008152506004600260048110151561027857fe5b01908051906020019061028c929190610459565b506040805190810160405280600981526020017f536f757263653220330000000000000000000000000000000000000000000000815250600460036004811015156102d357fe5b0190805190602001906102e7929190610459565b506040805190810160405280600981526020017f536f7572636533203000000000000000000000000000000000000000000000008152506008600060048110151561032e57fe5b019080519060200190610342929190610459565b506040805190810160405280600981526020017f536f7572636533203100000000000000000000000000000000000000000000008152506008600160048110151561038957fe5b01908051906020019061039d929190610459565b506040805190810160405280600981526020017f536f757263653320320000000000000000000000000000000000000000000000815250600860026004811015156103e457fe5b0190805190602001906103f8929190610459565b506040805190810160405280600981526020017f536f7572636533203300000000000000000000000000000000000000000000008152506008600360048110151561043f57fe5b019080519060200190610453929190610459565b506104fe565b828054600181600116156101000203166002900490600052602060002090601f016020900481019282601f1061049a57805160ff19168380011785556104c8565b828001600101855582156104c8579182015b828111156104c75782518255916020019190600101906104ac565b5b5090506104d591906104d9565b5090565b6104fb91905b808211156104f75760008160009055506001016104df565b5090565b90565b6101448061050d6000396000f300608060405260043610610041576000357c0100000000000000000000000000000000000000000000000000000000900463ffffffff1680639f615ee114610046575b600080fd5b34801561005257600080fd5b5061005b6100d6565b6040518080602001828103825283818151815260200191508051906020019080838360005b8381101561009b578082015181840152602081019050610080565b50505050905090810190601f1680156100c85780820380516001836020036101000a031916815260200191505b509250505060405180910390f35b6060806040805190810160405280600581526020017f68656c6c6f000000000000000000000000000000000000000000000000000000815250905080915050905600a165627a7a72305820932df4566cb5457e2ec693bb1336bef1481ba1f3cf33d4f9e92411353b0182530029",
  "source": "pragma solidity ^0.4.24;\n// import \"tabookey-gasless/contracts/RelayRecipient.sol\";\n// import './Strings.sol';\n\ncontract FortuneTeller {\n    constructor() public {\n        // this is the only hub I trust to receive calls from\n        // init_relay_hub(RelayHub(hub));\n\n        Source1[0] = \"Source1 0\";\n        Source1[1] = \"Source1 1\";\n        Source1[2] = \"Source1 2\";\n        Source1[3] = \"Source1 3\";\n\n        Source2[0] = \"Source2 0\";\n        Source2[1] = \"Source2 1\";\n        Source2[2] = \"Source2 2\";\n        Source2[3] = \"Source2 3\";\n\n        Source3[0] = \"Source3 0\";\n        Source3[1] = \"Source3 1\";\n        Source3[2] = \"Source3 2\";\n        Source3[3] = \"Source3 3\";\n    }\n\n    string[4] Source1;\n    string[4] Source2;\n    string[4] Source3;\n    string[4] Predictions;\n\n\n    function getPrediction() public returns(string memory){\n        // uint random1 = uint(keccak256(abi.encodePacked(owner, now)))%3;\n        // uint random2 = uint(keccak256(abi.encodePacked(owner, now+1)))%3;\n        // uint random3 = uint(keccak256(abi.encodePacked(owner, now+2)))%3;\n      string memory result = \"hello\";\n      return result;\n\n    //  return strConcat(Source1[random1],\" \",Source2[random2],\" \",Source3[random3]);\n    }\n\n    function strConcat(string _a, string _b, string _c, string _d, string _e) internal pure returns (string) {\n        bytes memory _ba = bytes(_a);\n        bytes memory _bb = bytes(_b);\n        bytes memory _bc = bytes(_c);\n        bytes memory _bd = bytes(_d);\n        bytes memory _be = bytes(_e);\n        string memory abcde = new string(_ba.length + _bb.length + _bc.length + _bd.length + _be.length);\n        bytes memory babcde = bytes(abcde);\n        uint k = 0;\n        for (uint i = 0; i < _ba.length; i++) babcde[k++] = _ba[i];\n        for (i = 0; i < _bb.length; i++) babcde[k++] = _bb[i];\n        for (i = 0; i < _bc.length; i++) babcde[k++] = _bc[i];\n        for (i = 0; i < _bd.length; i++) babcde[k++] = _bd[i];\n        for (i = 0; i < _be.length; i++) babcde[k++] = _be[i];\n        return string(babcde);\n    }\n\n    // function accept_relayed_call(address relay, address from, bytes memory encoded_function, uint gas_price, uint transaction_fee) public view returns(uint32) {\n    //     return 0;\n    // }\n\n    // function post_relayed_call(address relay, address from, bytes memory encoded_function, bool success, uint used_gas, uint transaction_fee) public {\n    // }\n}",
  "sourcePath": "/Users/me/code/reactbox/contracts/FortuneTeller.sol",
  "compiler": {
    "name": "solc",
    "version": "0.4.24+commit.e67f0147.Emscripten.clang"
  },
  "schemaVersion": "3.0.11",
  "updatedAt": "2019-08-12T12:03:02.861Z",
  "devdoc": {
    "methods": {}
  },
  "userdoc": {
    "methods": {}
  }
}