{
  "contractName": "RLPReader",
  "abi": [
    {
      "constant": true,
      "inputs": [
        {
          "name": "raw_transaction",
          "type": "bytes"
        }
      ],
      "name": "decode_transaction",
      "outputs": [
        {
          "name": "",
          "type": "uint256"
        },
        {
          "name": "",
          "type": "uint256"
        },
        {
          "name": "",
          "type": "uint256"
        },
        {
          "name": "",
          "type": "address"
        },
        {
          "name": "",
          "type": "uint256"
        },
        {
          "name": "",
          "type": "bytes"
        }
      ],
      "payable": false,
      "stateMutability": "pure",
      "type": "function"
    }
  ],
  "bytecode": "0x610808610030600b82828239805160001a6073146000811461002057610022565bfe5b5030600052607381538281f3007300000000000000000000000000000000000000003014608060405260043610610058576000357c0100000000000000000000000000000000000000000000000000000000900463ffffffff168063781cebc11461005d575b600080fd5b6100b7600480360381019080803590602001908201803590602001908080601f0160208091040260200160405190810160405280939291908181526020018383808284378201915050505050509192919290505050610181565b604051808781526020018681526020018581526020018473ffffffffffffffffffffffffffffffffffffffff1673ffffffffffffffffffffffffffffffffffffffff16815260200183815260200180602001828103825283818151815260200191508051906020019080838360005b83811015610141578082015181840152602081019050610126565b50505050905090810190601f16801561016e5780820380516001836020036101000a031916815260200191505b5097505050505050505060405180910390f35b600080600080600060608061019d6101988961027b565b6102d1565b90506101c08160008151811015156101b157fe5b90602001906020020151610416565b6101e18260018151811015156101d257fe5b90602001906020020151610416565b6102028360028151811015156101f357fe5b90602001906020020151610416565b61022384600381518110151561021457fe5b90602001906020020151610458565b61024485600481518110151561023557fe5b90602001906020020151610416565b61026586600581518110151561025657fe5b9060200190602002015161050d565b9650965096509650965096505091939550919395565b6102836107a8565b600080835114156102ac57604080519081016040528060008152602001600081525091506102cb565b6020830190506040805190810160405280845181526020018281525091505b50919050565b60606000806000806102e286610587565b1515610356576040517f08c379a000000000000000000000000000000000000000000000000000000000815260040180806020018281038252600d8152602001807f69734c697374206661696c65640000000000000000000000000000000000000081525060200191505060405180910390fd5b61035f866105be565b93508360405190808252806020026020018201604052801561039b57816020015b6103886107c2565b8152602001906001900390816103805790505b5094506103ab8660200151610618565b8660200151019250600090505b8381101561040d576103c98361069e565b915060408051908101604052808381526020018481525085828151811015156103ee57fe5b90602001906020020181905250818301925080806001019150506103b8565b50505050919050565b600080600080600061042b8660200151610618565b9350838660000151039250838660200151019150826020036101000a825104905080945050505050919050565b600060158260000151111515156104fd576040517f08c379a000000000000000000000000000000000000000000000000000000000815260040180806020018281038252603a8152602001807f496e76616c696420524c504974656d2e2041646472657373657320617265206581526020017f6e636f64656420696e203230206279746573206f72206c65737300000000000081525060400191505060405180910390fd5b61050682610416565b9050919050565b6060600080606060006105238660200151610618565b9350838660000151039250826040519080825280601f01601f1916602001820160405280156105615781602001602082028038833980820191505090505b50915081602001905061057b84876020015101828561074e565b81945050505050919050565b600080600083602001519050805160001a915060c060ff168260ff1610156105b257600092506105b7565b600192505b5050919050565b600080600080600092506105d58560200151610618565b8560200151019150846000015185602001510190505b8082101561060d576105fc8261069e565b8201915082806001019350506105eb565b829350505050919050565b600080825160001a9050608060ff168110156106375760009150610698565b60b860ff1681108061065c575060c060ff16811015801561065b575060f860ff1681105b5b1561066a5760019150610698565b60c060ff168110156106895760018060b80360ff168203019150610698565b60018060f80360ff1682030191505b50919050565b600080825160001a9050608060ff168110156106bd5760019150610748565b60b860ff168110156106da576001608060ff168203019150610748565b60c060ff1681101561070a5760b78103600184019350806020036101000a84510460018201810193505050610747565b60f860ff1681101561072757600160c060ff168203019150610748565b60f78103600184019350806020036101000a845104600182018101935050505b5b50919050565b60005b602060ff16821015156107825783518352602060ff1684019350602060ff1683019250602060ff1682039150610751565b600182602060ff16036101000a0390508019845116818451168181178552505050505050565b604080519081016040528060008152602001600081525090565b6040805190810160405280600081526020016000815250905600a165627a7a7230582028e87d780369ad8f0ad4e35c396d695f2d1821bc4aa8a80cd315fc410b523a790029",
  "source": "/*\n* Taken from https://github.com/hamdiallam/Solidity-RLP\n*/\n\npragma solidity >=0.4.0 <0.6.0;\n\nlibrary RLPReader {\n\n    uint8 constant STRING_SHORT_START = 0x80;\n    uint8 constant STRING_LONG_START = 0xb8;\n    uint8 constant LIST_SHORT_START = 0xc0;\n    uint8 constant LIST_LONG_START = 0xf8;\n    uint8 constant WORD_SIZE = 32;\n\n    struct RLPItem {\n        uint len;\n        uint memPtr;\n    }\n\n    using RLPReader for bytes;\n    using RLPReader for uint;\n    using RLPReader for RLPReader.RLPItem;\n\n    // helper function to decode rlp encoded  ethereum transaction\n    /*\n    * @param raw_transaction RLP encoded ethereum transaction\n    * @return tuple (nonce,gas_price,gas_limit,to,value,data)\n    */\n\n    function decode_transaction(bytes memory raw_transaction) public pure returns (uint, uint, uint, address, uint, bytes memory){\n        RLPReader.RLPItem[] memory values = raw_transaction.toRlpItem().toList(); // must convert to an rlpItem first!\n        return (values[0].toUint(), values[1].toUint(), values[2].toUint(), values[3].toAddress(), values[4].toUint(), values[5].toBytes());\n    }\n\n    function bytesToBytes32(bytes memory b, uint offset) private pure returns (bytes32) {\n        bytes32 out;\n        for (uint i = 0; i < 32; i++) {\n            out |= bytes32(b[offset + i] & 0xFF) >> (i * 8);\n        }\n        return out;\n    }\n\n    /*\n    * @param item RLP encoded bytes\n    */\n    function toRlpItem(bytes memory item) internal pure returns (RLPItem memory) {\n        if (item.length == 0)\n            return RLPItem(0, 0);\n        uint memPtr;\n        assembly {\n            memPtr := add(item, 0x20)\n        }\n        return RLPItem(item.length, memPtr);\n    }\n    /*\n    * @param item RLP encoded list in bytes\n    */\n    function toList(RLPItem memory item) internal pure returns (RLPItem[] memory result) {\n        require(isList(item), \"isList failed\");\n        uint items = numItems(item);\n        result = new RLPItem[](items);\n        uint memPtr = item.memPtr + _payloadOffset(item.memPtr);\n        uint dataLen;\n        for (uint i = 0; i < items; i++) {\n            dataLen = _itemLength(memPtr);\n            result[i] = RLPItem(dataLen, memPtr);\n            memPtr = memPtr + dataLen;\n        }\n    }\n    /*\n    * Helpers\n    */\n    // @return indicator whether encoded payload is a list. negate this function call for isData.\n    function isList(RLPItem memory item) internal pure returns (bool) {\n        uint8 byte0;\n        uint memPtr = item.memPtr;\n        assembly {\n            byte0 := byte(0, mload(memPtr))\n        }\n        if (byte0 < LIST_SHORT_START)\n            return false;\n        return true;\n    }\n    // @return number of payload items inside an encoded list.\n    function numItems(RLPItem memory item) internal pure returns (uint) {\n        uint count = 0;\n        uint currPtr = item.memPtr + _payloadOffset(item.memPtr);\n        uint endPtr = item.memPtr + item.len;\n        while (currPtr < endPtr) {\n            currPtr = currPtr + _itemLength(currPtr);\n            // skip over an item\n            count++;\n        }\n        return count;\n    }\n    // @return entire rlp item byte length\n    function _itemLength(uint memPtr) internal pure returns (uint len) {\n        uint byte0;\n        assembly {\n            byte0 := byte(0, mload(memPtr))\n        }\n        if (byte0 < STRING_SHORT_START)\n            return 1;\n        else if (byte0 < STRING_LONG_START)\n            return byte0 - STRING_SHORT_START + 1;\n        else if (byte0 < LIST_SHORT_START) {\n            assembly {\n                let byteLen := sub(byte0, 0xb7) // # of bytes the actual length is\n                memPtr := add(memPtr, 1) // skip over the first byte\n            /* 32 byte word size */\n                let dataLen := div(mload(memPtr), exp(256, sub(32, byteLen))) // right shifting to get the len\n                len := add(dataLen, add(byteLen, 1))\n            }\n        }\n        else if (byte0 < LIST_LONG_START) {\n            return byte0 - LIST_SHORT_START + 1;\n        }\n        else {\n            assembly {\n                let byteLen := sub(byte0, 0xf7)\n                memPtr := add(memPtr, 1)\n                let dataLen := div(mload(memPtr), exp(256, sub(32, byteLen))) // right shifting to the correct length\n                len := add(dataLen, add(byteLen, 1))\n            }\n        }\n    }\n    // @return number of bytes until the data\n    function _payloadOffset(uint memPtr) internal pure returns (uint) {\n        uint byte0;\n        assembly {\n            byte0 := byte(0, mload(memPtr))\n        }\n        if (byte0 < STRING_SHORT_START)\n            return 0;\n        else if (byte0 < STRING_LONG_START || (byte0 >= LIST_SHORT_START && byte0 < LIST_LONG_START))\n            return 1;\n        else if (byte0 < LIST_SHORT_START)  // being explicit\n            return byte0 - (STRING_LONG_START - 1) + 1;\n        else\n            return byte0 - (LIST_LONG_START - 1) + 1;\n    }\n    /** RLPItem conversions into data types **/\n    // @returns raw rlp encoding in bytes\n    function toRlpBytes(RLPItem memory item) internal pure returns (bytes memory) {\n        bytes memory result = new bytes(item.len);\n        uint ptr;\n        assembly {\n            ptr := add(0x20, result)\n        }\n        copy(item.memPtr, ptr, item.len);\n        return result;\n    }\n\n    function toBoolean(RLPItem memory item) internal pure returns (bool) {\n        require(item.len == 1, \"Invalid RLPItem. Booleans are encoded in 1 byte\");\n        uint result;\n        uint memPtr = item.memPtr;\n        assembly {\n            result := byte(0, mload(memPtr))\n        }\n        return result == 0 ? false : true;\n    }\n\n    function toAddress(RLPItem memory item) internal pure returns (address) {\n        // 1 byte for the length prefix according to RLP spec\n        require(item.len <= 21, \"Invalid RLPItem. Addresses are encoded in 20 bytes or less\");\n        return address(toUint(item));\n    }\n\n    function toUint(RLPItem memory item) internal pure returns (uint) {\n        uint offset = _payloadOffset(item.memPtr);\n        uint len = item.len - offset;\n        uint memPtr = item.memPtr + offset;\n        uint result;\n        assembly {\n            result := div(mload(memPtr), exp(256, sub(32, len))) // shift to the correct location\n        }\n        return result;\n    }\n\n    function toBytes(RLPItem memory item) internal pure returns (bytes memory) {\n        uint offset = _payloadOffset(item.memPtr);\n        uint len = item.len - offset;\n        // data length\n        bytes memory result = new bytes(len);\n        uint destPtr;\n        assembly {\n            destPtr := add(0x20, result)\n        }\n        copy(item.memPtr + offset, destPtr, len);\n        return result;\n    }\n    /*\n    * @param src Pointer to source\n    * @param dest Pointer to destination\n    * @param len Amount of memory to copy from the source\n    */\n    function copy(uint src, uint dest, uint len) internal pure {\n        // copy as many word sizes as possible\n        for (; len >= WORD_SIZE; len -= WORD_SIZE) {\n            assembly {\n                mstore(dest, mload(src))\n            }\n            src += WORD_SIZE;\n            dest += WORD_SIZE;\n        }\n        // left over bytes. Mask is used to remove unwanted bytes from the word\n        uint mask = 256 ** (WORD_SIZE - len) - 1;\n        assembly {\n            let srcpart := and(mload(src), not(mask)) // zero out src\n            let destpart := and(mload(dest), mask) // retrieve the bytes\n            mstore(dest, or(destpart, srcpart))\n        }\n    }\n}\n",
  "sourcePath": "tabookey-gasless/contracts/RLPReader.sol",
  "compiler": {
    "name": "solc",
    "version": "0.4.24+commit.e67f0147.Emscripten.clang"
  },
  "schemaVersion": "3.0.11",
  "updatedAt": "2019-08-08T10:08:22.655Z",
  "devdoc": {
    "methods": {}
  },
  "userdoc": {
    "methods": {}
  }
}