{
  "contractName": "SimpleStorage",
  "abi": [
    {
      "inputs": [],
      "payable": false,
      "stateMutability": "nonpayable",
      "type": "constructor"
    },
    {
      "constant": false,
      "inputs": [
        {
          "name": "_v",
          "type": "uint256"
        }
      ],
      "name": "setValue",
      "outputs": [],
      "payable": false,
      "stateMutability": "nonpayable",
      "type": "function"
    },
    {
      "constant": true,
      "inputs": [],
      "name": "getValue",
      "outputs": [
        {
          "name": "",
          "type": "uint256"
        }
      ],
      "payable": false,
      "stateMutability": "view",
      "type": "function"
    },
    {
      "constant": false,
      "inputs": [],
      "name": "getPrediction",
      "outputs": [
        {
          "name": "",
          "type": "string"
        }
      ],
      "payable": false,
      "stateMutability": "nonpayable",
      "type": "function"
    },
    {
      "constant": true,
      "inputs": [],
      "name": "getText",
      "outputs": [
        {
          "name": "",
          "type": "string"
        }
      ],
      "payable": false,
      "stateMutability": "view",
      "type": "function"
    }
  ],
  "bytecode": "0x6080604052602a600e553480156200001657600080fd5b506040805190810160405280601681526020017f596f752077696c6c2062652076657279207269636820000000000000000000008152506000806004811015156200005d57fe5b0190805190602001906200007392919062000484565b506040805190810160405280601081526020017f596f752077696c6c20626520726963680000000000000000000000000000000081525060006001600481101515620000bb57fe5b019080519060200190620000d192919062000484565b506040805190810160405280601081526020017f596f752077696c6c20626520706f6f7200000000000000000000000000000000815250600060026004811015156200011957fe5b0190805190602001906200012f92919062000484565b506040805190810160405280601581526020017f596f752077696c6c206265207665727920706f6f720000000000000000000000815250600060036004811015156200017757fe5b0190805190602001906200018d92919062000484565b506040805190810160405280600a81526020017f766572792068617070790000000000000000000000000000000000000000000081525060046000600481101515620001d557fe5b019080519060200190620001eb92919062000484565b506040805190810160405280600581526020017f6861707079000000000000000000000000000000000000000000000000000000815250600460016004811015156200023357fe5b0190805190602001906200024992919062000484565b506040805190810160405280600381526020017f7361640000000000000000000000000000000000000000000000000000000000815250600460026004811015156200029157fe5b019080519060200190620002a792919062000484565b506040805190810160405280600881526020017f766572792073616400000000000000000000000000000000000000000000000081525060046003600481101515620002ef57fe5b0190805190602001906200030592919062000484565b506040805190810160405280601581526020017f68617665206c6f7473206f6620667269656e6473210000000000000000000000815250600860006004811015156200034d57fe5b0190805190602001906200036392919062000484565b506040805190810160405280601281526020017f6861766520736f6d6520667269656e64732e000000000000000000000000000081525060086001600481101515620003ab57fe5b019080519060200190620003c192919062000484565b506040805190810160405280601081526020017f68617665206f6e6520667269656e642e00000000000000000000000000000000815250600860026004811015156200040957fe5b0190805190602001906200041f92919062000484565b506040805190810160405280600f81526020017f68617665206e6f20667269656e642e0000000000000000000000000000000000815250600860036004811015156200046757fe5b0190805190602001906200047d92919062000484565b5062000533565b828054600181600116156101000203166002900490600052602060002090601f016020900481019282601f10620004c757805160ff1916838001178555620004f8565b82800160010185558215620004f8579182015b82811115620004f7578251825591602001919060010190620004da565b5b5090506200050791906200050b565b5090565b6200053091905b808211156200052c57600081600090555060010162000512565b5090565b90565b610d3480620005436000396000f300608060405260043610610062576000357c0100000000000000000000000000000000000000000000000000000000900463ffffffff168063209652551461006757806355241077146100925780639f615ee1146100bf578063e00fe2eb1461014f575b600080fd5b34801561007357600080fd5b5061007c6101df565b6040518082815260200191505060405180910390f35b34801561009e57600080fd5b506100bd600480360381019080803590602001909291905050506101e9565b005b3480156100cb57600080fd5b506100d46101f3565b6040518080602001828103825283818151815260200191508051906020019080838360005b838110156101145780820151818401526020810190506100f9565b50505050905090810190601f1680156101415780820380516001836020036101000a031916815260200191505b509250505060405180910390f35b34801561015b57600080fd5b5061016461072c565b6040518080602001828103825283818151815260200191508051906020019080838360005b838110156101a4578082015181840152602081019050610189565b50505050905090810190601f1680156101d15780820380516001836020036101000a031916815260200191505b509250505060405180910390f35b6000600d54905090565b80600d8190555050565b606060008060006060600e600081548092919060010191905055506003600e5481151561021c57fe5b0693506003336001600e54420101604051602001808373ffffffffffffffffffffffffffffffffffffffff1673ffffffffffffffffffffffffffffffffffffffff166c01000000000000000000000000028152601401828152602001925050506040516020818303038152906040526040518082805190602001908083835b6020831015156102c0578051825260208201915060208101905060208303925061029b565b6001836020036101000a0380198251168184511680821785525050505050509050019150506040518091039020600190048115156102fa57fe5b0692506003336002600e54420101604051602001808373ffffffffffffffffffffffffffffffffffffffff1673ffffffffffffffffffffffffffffffffffffffff166c01000000000000000000000000028152601401828152602001925050506040516020818303038152906040526040518082805190602001908083835b60208310151561039e5780518252602082019150602081019050602083039250610379565b6001836020036101000a0380198251168184511680821785525050505050509050019150506040518091039020600190048115156103d857fe5b06915061064a6000856004811015156103ed57fe5b018054600181600116156101000203166002900480601f0160208091040260200160405190810160405280929190818152602001828054600181600116156101000203166002900480156104825780601f1061045757610100808354040283529160200191610482565b820191906000526020600020905b81548152906001019060200180831161046557829003601f168201915b50505050506040805190810160405280600281526020017f2c200000000000000000000000000000000000000000000000000000000000008152506004866004811015156104cc57fe5b018054600181600116156101000203166002900480601f0160208091040260200160405190810160405280929190818152602001828054600181600116156101000203166002900480156105615780601f1061053657610100808354040283529160200191610561565b820191906000526020600020905b81548152906001019060200180831161054457829003601f168201915b50505050506040805190810160405280600581526020017f20616e64200000000000000000000000000000000000000000000000000000008152506008876004811015156105ab57fe5b018054600181600116156101000203166002900480601f0160208091040260200160405190810160405280929190818152602001828054600181600116156101000203166002900480156106405780601f1061061557610100808354040283529160200191610640565b820191906000526020600020905b81548152906001019060200180831161062357829003601f168201915b50505050506107ce565b905080600f9080519060200190610662929190610be3565b50600c60408051908101604052808381526020013373ffffffffffffffffffffffffffffffffffffffff168152509080600181540180825580915050906001820390600052602060002090600202016000909192909190915060008201518160000190805190602001906106d7929190610c63565b5060208201518160010160006101000a81548173ffffffffffffffffffffffffffffffffffffffff021916908373ffffffffffffffffffffffffffffffffffffffff1602179055505050508094505050505090565b6060600f8054600181600116156101000203166002900480601f0160208091040260200160405190810160405280929190818152602001828054600181600116156101000203166002900480156107c45780601f10610799576101008083540402835291602001916107c4565b820191906000526020600020905b8154815290600101906020018083116107a757829003601f168201915b5050505050905090565b6060806060806060806060806000808e98508d97508c96508b95508a94508451865188518a518c51010101016040519080825280601f01601f19166020018201604052801561082c5781602001602082028038833980820191505090505b50935083925060009150600090505b88518110156108ee57888181518110151561085257fe5b9060200101517f010000000000000000000000000000000000000000000000000000000000000090047f01000000000000000000000000000000000000000000000000000000000000000283838060010194508151811015156108b157fe5b9060200101907effffffffffffffffffffffffffffffffffffffffffffffffffffffffffffff1916908160001a905350808060010191505061083b565b600090505b87518110156109a657878181518110151561090a57fe5b9060200101517f010000000000000000000000000000000000000000000000000000000000000090047f010000000000000000000000000000000000000000000000000000000000000002838380600101945081518110151561096957fe5b9060200101907effffffffffffffffffffffffffffffffffffffffffffffffffffffffffffff1916908160001a90535080806001019150506108f3565b600090505b8651811015610a5e5786818151811015156109c257fe5b9060200101517f010000000000000000000000000000000000000000000000000000000000000090047f0100000000000000000000000000000000000000000000000000000000000000028383806001019450815181101515610a2157fe5b9060200101907effffffffffffffffffffffffffffffffffffffffffffffffffffffffffffff1916908160001a90535080806001019150506109ab565b600090505b8551811015610b16578581815181101515610a7a57fe5b9060200101517f010000000000000000000000000000000000000000000000000000000000000090047f0100000000000000000000000000000000000000000000000000000000000000028383806001019450815181101515610ad957fe5b9060200101907effffffffffffffffffffffffffffffffffffffffffffffffffffffffffffff1916908160001a9053508080600101915050610a63565b600090505b8451811015610bce578481815181101515610b3257fe5b9060200101517f010000000000000000000000000000000000000000000000000000000000000090047f0100000000000000000000000000000000000000000000000000000000000000028383806001019450815181101515610b9157fe5b9060200101907effffffffffffffffffffffffffffffffffffffffffffffffffffffffffffff1916908160001a9053508080600101915050610b1b565b82995050505050505050505095945050505050565b828054600181600116156101000203166002900490600052602060002090601f016020900481019282601f10610c2457805160ff1916838001178555610c52565b82800160010185558215610c52579182015b82811115610c51578251825591602001919060010190610c36565b5b509050610c5f9190610ce3565b5090565b828054600181600116156101000203166002900490600052602060002090601f016020900481019282601f10610ca457805160ff1916838001178555610cd2565b82800160010185558215610cd2579182015b82811115610cd1578251825591602001919060010190610cb6565b5b509050610cdf9190610ce3565b5090565b610d0591905b80821115610d01576000816000905550600101610ce9565b5090565b905600a165627a7a723058206e8fe341c66c571a608298db8da28e2291d67ac88bfa84e353018aac06547bb10029",
  "source": "// pragma solidity ^0.4.24;\n\n// import \"tabookey-gasless/contracts/RelayRecipient.sol\";\n\n// contract SimpleStorage is RelayRecipient {\n//     constructor(address hub) public {\n//         // this is the only hub I trust to receive calls from\n//         init_relay_hub(RelayHub(hub));\n//     }\n\n//     uint storedData;\n\n//     function setValue(uint _v) public {\n//       storedData = _v;\n//     }\n\n//     function getValue() public view returns(uint) {\n//       return storedData;\n//     }\n\n//     function accept_relayed_call(address relay, address from, bytes memory encoded_function, uint gas_price, uint transaction_fee) public view returns(uint32) {\n//         return 0;\n//     }\n\n//     function post_relayed_call(address relay, address from, bytes memory encoded_function, bool success, uint used_gas, uint transaction_fee) public {\n//     }\n// }\n\npragma solidity ^0.4.24;\n\n\ncontract SimpleStorage  {\n    constructor() public {\n        // this is the only hub I trust to receive calls from\n        Source1[0] = \"You will be very rich \";\n        Source1[1] = \"You will be rich\";\n        Source1[2] = \"You will be poor\";\n        Source1[3] = \"You will be very poor\";\n\n        Source2[0] = \"very happy\";\n        Source2[1] = \"happy\";\n        Source2[2] = \"sad\";\n        Source2[3] = \"very sad\";\n\n        Source3[0] = \"have lots of friends!\";\n        Source3[1] = \"have some friends.\";\n        Source3[2] = \"have one friend.\";\n        Source3[3] = \"have no friend.\";\n    }\n\n    string[4] Source1;\n    string[4] Source2;\n    string[4] Source3;\n\n    struct Prediction{\n      string text;\n      address owner;\n    }\n\n    Prediction[] predictions;\n\n    uint storedData;\n    uint randomness = 42;\n    string storedText;\n\n    function setValue(uint _v) public {\n      storedData = _v;\n    }\n\n    function getValue() public view returns(uint) {\n      return storedData;\n    }\n\n    function getPrediction() public returns(string memory){\n      randomness++;\n      uint random1 = randomness%3;\n      uint random2 = uint(keccak256(abi.encodePacked(msg.sender, now+randomness+1)))%3;\n      uint random3 = uint(keccak256(abi.encodePacked(msg.sender, now+randomness+2)))%3;\n\n      string memory _prediction = strConcat(Source1[random1],\", \",Source2[random2],\" and \",Source3[random3]);\n\n      storedText = _prediction;\n      predictions.push(Prediction(_prediction,msg.sender));\n\n      return _prediction;\n    }\n\n    function getText() public view returns(string) {\n      return storedText;\n    }\n\n    function strConcat(string _a, string _b, string _c, string _d, string _e) internal pure returns (string) {\n        bytes memory _ba = bytes(_a);\n        bytes memory _bb = bytes(_b);\n        bytes memory _bc = bytes(_c);\n        bytes memory _bd = bytes(_d);\n        bytes memory _be = bytes(_e);\n        string memory abcde = new string(_ba.length + _bb.length + _bc.length + _bd.length + _be.length);\n        bytes memory babcde = bytes(abcde);\n        uint k = 0;\n        for (uint i = 0; i < _ba.length; i++) babcde[k++] = _ba[i];\n        for (i = 0; i < _bb.length; i++) babcde[k++] = _bb[i];\n        for (i = 0; i < _bc.length; i++) babcde[k++] = _bc[i];\n        for (i = 0; i < _bd.length; i++) babcde[k++] = _bd[i];\n        for (i = 0; i < _be.length; i++) babcde[k++] = _be[i];\n        return string(babcde);\n    }\n}\n",
  "sourcePath": "/Users/me/code/reactbox/contracts/SimpleStorage.sol",
  "compiler": {
    "name": "solc",
    "version": "0.4.24+commit.e67f0147.Emscripten.clang"
  },
  "schemaVersion": "3.0.11",
  "updatedAt": "2019-08-12T18:54:40.597Z",
  "devdoc": {
    "methods": {}
  },
  "userdoc": {
    "methods": {}
  }
}