{
  "contractName": "SimpleStorage",
  "abi": [
    {
      "constant": true,
      "inputs": [],
      "name": "get_hub_addr",
      "outputs": [
        {
          "name": "",
          "type": "address"
        }
      ],
      "payable": false,
      "stateMutability": "view",
      "type": "function"
    },
    {
      "constant": true,
      "inputs": [],
      "name": "get_message_data",
      "outputs": [
        {
          "name": "",
          "type": "bytes"
        }
      ],
      "payable": false,
      "stateMutability": "view",
      "type": "function"
    },
    {
      "constant": true,
      "inputs": [],
      "name": "get_sender",
      "outputs": [
        {
          "name": "",
          "type": "address"
        }
      ],
      "payable": false,
      "stateMutability": "view",
      "type": "function"
    },
    {
      "constant": true,
      "inputs": [
        {
          "name": "orig_sender",
          "type": "address"
        },
        {
          "name": "msg_data",
          "type": "bytes"
        }
      ],
      "name": "get_sender_from_data",
      "outputs": [
        {
          "name": "",
          "type": "address"
        }
      ],
      "payable": false,
      "stateMutability": "view",
      "type": "function"
    },
    {
      "constant": true,
      "inputs": [],
      "name": "get_recipient_balance",
      "outputs": [
        {
          "name": "",
          "type": "uint256"
        }
      ],
      "payable": false,
      "stateMutability": "view",
      "type": "function"
    },
    {
      "inputs": [
        {
          "name": "hub",
          "type": "address"
        }
      ],
      "payable": false,
      "stateMutability": "nonpayable",
      "type": "constructor"
    },
    {
      "constant": false,
      "inputs": [
        {
          "name": "_v",
          "type": "uint256"
        }
      ],
      "name": "setValue",
      "outputs": [],
      "payable": false,
      "stateMutability": "nonpayable",
      "type": "function"
    },
    {
      "constant": true,
      "inputs": [],
      "name": "getValue",
      "outputs": [
        {
          "name": "",
          "type": "uint256"
        }
      ],
      "payable": false,
      "stateMutability": "view",
      "type": "function"
    },
    {
      "constant": true,
      "inputs": [
        {
          "name": "relay",
          "type": "address"
        },
        {
          "name": "from",
          "type": "address"
        },
        {
          "name": "encoded_function",
          "type": "bytes"
        },
        {
          "name": "gas_price",
          "type": "uint256"
        },
        {
          "name": "transaction_fee",
          "type": "uint256"
        }
      ],
      "name": "accept_relayed_call",
      "outputs": [
        {
          "name": "",
          "type": "uint32"
        }
      ],
      "payable": false,
      "stateMutability": "view",
      "type": "function"
    },
    {
      "constant": false,
      "inputs": [
        {
          "name": "relay",
          "type": "address"
        },
        {
          "name": "from",
          "type": "address"
        },
        {
          "name": "encoded_function",
          "type": "bytes"
        },
        {
          "name": "success",
          "type": "bool"
        },
        {
          "name": "used_gas",
          "type": "uint256"
        },
        {
          "name": "transaction_fee",
          "type": "uint256"
        }
      ],
      "name": "post_relayed_call",
      "outputs": [],
      "payable": false,
      "stateMutability": "nonpayable",
      "type": "function"
    }
  ],
  "bytecode": "0x608060405234801561001057600080fd5b50604051602080610c3d8339810180604052810190808051906020019092919050505061004b81610051640100000000026401000000009004565b506102a8565b600073ffffffffffffffffffffffffffffffffffffffff166000809054906101000a900473ffffffffffffffffffffffffffffffffffffffff1673ffffffffffffffffffffffffffffffffffffffff16141515610116576040517f08c379a00000000000000000000000000000000000000000000000000000000081526004018080602001828103825260208152602001807f696e69745f72656c61795f6875623a207268756220616c72656164792073657481525060200191505060405180910390fd5b61012e81610131640100000000026401000000009004565b50565b806000806101000a81548173ffffffffffffffffffffffffffffffffffffffff021916908373ffffffffffffffffffffffffffffffffffffffff16021790555061018861018c640100000000026401000000009004565b5050565b60006101a561027f640100000000026401000000009004565b73ffffffffffffffffffffffffffffffffffffffff166370a08231306040518263ffffffff167c0100000000000000000000000000000000000000000000000000000000028152600401808273ffffffffffffffffffffffffffffffffffffffff1673ffffffffffffffffffffffffffffffffffffffff168152602001915050602060405180830381600087803b15801561023f57600080fd5b505af1158015610253573d6000803e3d6000fd5b505050506040513d602081101561026957600080fd5b8101908080519060200190929190505050905090565b60008060009054906101000a900473ffffffffffffffffffffffffffffffffffffffff16905090565b610986806102b76000396000f300608060405260043610610099576000357c0100000000000000000000000000000000000000000000000000000000900463ffffffff16806304badade1461009e57806320965255146100f5578063516dea301461012057806355241077146101e95780635dea186c1461021657806391719568146102f3578063a8d509ff14610383578063c304e7a4146103da578063ed6cd5d3146104a3575b600080fd5b3480156100aa57600080fd5b506100b36104ce565b604051808273ffffffffffffffffffffffffffffffffffffffff1673ffffffffffffffffffffffffffffffffffffffff16815260200191505060405180910390f35b34801561010157600080fd5b5061010a6104f7565b6040518082815260200191505060405180910390f35b34801561012c57600080fd5b506101e7600480360381019080803573ffffffffffffffffffffffffffffffffffffffff169060200190929190803573ffffffffffffffffffffffffffffffffffffffff169060200190929190803590602001908201803590602001908080601f01602080910402602001604051908101604052809392919081815260200183838082843782019150505050505091929192908035151590602001909291908035906020019092919080359060200190929190505050610501565b005b3480156101f557600080fd5b5061021460048036038101908080359060200190929190505050610509565b005b34801561022257600080fd5b506102d1600480360381019080803573ffffffffffffffffffffffffffffffffffffffff169060200190929190803573ffffffffffffffffffffffffffffffffffffffff169060200190929190803590602001908201803590602001908080601f01602080910402602001604051908101604052809392919081815260200183838082843782019150505050505091929192908035906020019092919080359060200190929190505050610513565b604051808263ffffffff1663ffffffff16815260200191505060405180910390f35b3480156102ff57600080fd5b50610308610521565b6040518080602001828103825283818151815260200191508051906020019080838360005b8381101561034857808201518184015260208101905061032d565b50505050905090810190601f1680156103755780820380516001836020036101000a031916815260200191505b509250505060405180910390f35b34801561038f57600080fd5b506103986106af565b604051808273ffffffffffffffffffffffffffffffffffffffff1673ffffffffffffffffffffffffffffffffffffffff16815260200191505060405180910390f35b3480156103e657600080fd5b50610461600480360381019080803573ffffffffffffffffffffffffffffffffffffffff169060200190929190803590602001908201803590602001908080601f01602080910402602001604051908101604052809392919081815260200183838082843782019150505050505091929192905050506106f3565b604051808273ffffffffffffffffffffffffffffffffffffffff1673ffffffffffffffffffffffffffffffffffffffff16815260200191505060405180910390f35b3480156104af57600080fd5b506104b861083f565b6040518082815260200191505060405180910390f35b60008060009054906101000a900473ffffffffffffffffffffffffffffffffffffffff16905090565b6000600154905090565b505050505050565b8060018190555050565b600080905095945050505050565b606080600080368080601f01602080910402602001604051908101604052809392919081815260200183838082843782019150505050505091506105636104ce565b73ffffffffffffffffffffffffffffffffffffffff163373ffffffffffffffffffffffffffffffffffffffff1614156106a75760146000369050036040519080825280601f01601f1916602001820160405280156105d05781602001602082028038833980820191505090505b509150600090505b81518110156106a6576000368281811015156105f057fe5b905001357f010000000000000000000000000000000000000000000000000000000000000090047f0100000000000000000000000000000000000000000000000000000000000000027effffffffffffffffffffffffffffffffffffffffffffffffffffffffffffff1916828281518110151561066957fe5b9060200101907effffffffffffffffffffffffffffffffffffffffffffffffffffffffffffff1916908160001a90535080806001019150506105d8565b5b819250505090565b60006106ee336000368080601f0160208091040260200160405190810160405280939291908181526020018383808284378201915050505050506106f3565b905090565b600080606060008592506107056104ce565b73ffffffffffffffffffffffffffffffffffffffff168673ffffffffffffffffffffffffffffffffffffffff1614156108335760146040519080825280601f01601f19166020018201604052801561076c5781602001602082028038833980820191505090505b509150600090505b815181101561082757848183518751030181518110151561079157fe5b9060200101517f010000000000000000000000000000000000000000000000000000000000000090047f01000000000000000000000000000000000000000000000000000000000000000282828151811015156107ea57fe5b9060200101907effffffffffffffffffffffffffffffffffffffffffffffffffffffffffffff1916908160001a9053508080600101915050610774565b61083082610923565b92505b82935050505092915050565b6000610849610931565b73ffffffffffffffffffffffffffffffffffffffff166370a08231306040518263ffffffff167c0100000000000000000000000000000000000000000000000000000000028152600401808273ffffffffffffffffffffffffffffffffffffffff1673ffffffffffffffffffffffffffffffffffffffff168152602001915050602060405180830381600087803b1580156108e357600080fd5b505af11580156108f7573d6000803e3d6000fd5b505050506040513d602081101561090d57600080fd5b8101908080519060200190929190505050905090565b600060148201519050919050565b60008060009054906101000a900473ffffffffffffffffffffffffffffffffffffffff169050905600a165627a7a7230582006727f07962b57b404726976054b26d55cd97817f32f5d22a078cf3077fa9c960029",
  "source": "pragma solidity ^0.4.24;\n\nimport \"tabookey-gasless/contracts/RelayRecipient.sol\";\n\ncontract SimpleStorage is RelayRecipient {\n    constructor(address hub) public {\n        // this is the only hub I trust to receive calls from\n        init_relay_hub(RelayHub(hub));\n    }\n\n    uint storedData;\n\n    function setValue(uint _v) public {\n      storedData = _v;\n    }\n\n    function getValue() public view returns(uint) {\n      return storedData;\n    }\n\n    function accept_relayed_call(address relay, address from, bytes memory encoded_function, uint gas_price, uint transaction_fee) public view returns(uint32) {\n        return 0;\n    }\n\n    function post_relayed_call(address relay, address from, bytes memory encoded_function, bool success, uint used_gas, uint transaction_fee) public {\n    }\n}\n",
  "sourcePath": "/Users/me/code/reactbox/contracts/SimpleStorage.sol",
  "compiler": {
    "name": "solc",
    "version": "0.4.24+commit.e67f0147.Emscripten.clang"
  },
  "schemaVersion": "3.0.11",
  "updatedAt": "2019-08-08T13:15:12.988Z",
  "devdoc": {
    "methods": {}
  },
  "userdoc": {
    "methods": {
      "get_recipient_balance()": {
        "notice": "return the balance of this contract. Note that this method will revert on configuration error (invalid relay address)"
      }
    }
  }
}